:020000040800F2
:1000000000180020C93900085D3500085F35000878
:1000100000000000000000000000000000000000E0
:100020000000000000000000000000006135000832
:10003000000000000000000063350008653500087E
:10004000493A000800000000493A0008493A00080F
:10005000493A0008493A0008493A0008493A000874
:100060000000000071350008493A0008493A0008CC
:10007000493A0008493A0008493A000800000000DF
:10008000493A00080000000000000000493A00085A
:1000900000000000493A0008493A0008493A0008BF
:1000A00000000000493A000800000000493A00083A
:1000B000493A0008000000000000000081350008F7
:1000C00010B5064C2378002B07D1054B002B02D02E
:1000D000044800E000BF0123237010BD240100206C
:1000E00000000000943A0008044B10B5002B03D028
:1000F0000349044800E000BF10BDC04600000000F6
:1001000028010020943A0008002243088B4274D34F
:1001100003098B425FD3030A8B4244D3030B8B4208
:1001200028D3030C8B420DD3FF22090212BA030C11
:100130008B4202D31212090265D0030B8B4219D3F2
:1001400000E0090AC30B8B4201D3CB03C01A524112
:10015000830B8B4201D38B03C01A5241430B8B425A
:1001600001D34B03C01A5241030B8B4201D30B0343
:10017000C01A5241C30A8B4201D3CB02C01A52416A
:10018000830A8B4201D38B02C01A5241430A8B422D
:1001900001D34B02C01A5241030A8B4201D30B0216
:1001A000C01A5241CDD2C3098B4201D3CB01C01A30
:1001B000524183098B4201D38B01C01A524143093A
:1001C0008B4201D34B01C01A524103098B4201D328
:1001D0000B01C01A5241C3088B4201D3CB00C01A95
:1001E000524183088B4201D38B00C01A524143080D
:1001F0008B4201D34B00C01A5241411A00D2014632
:10020000524110467047FFE701B5002000F006F8A4
:1002100002BDC0460029F7D076E770477047C04658
:1002200010B5040002F022F9FA218900FFF76CFFF3
:1002300000F0BEFA012000222100404200F07EFAC8
:10024000002010BD10B5064A136810210B4313603F
:100250000020FFF7E5FF03F019F9002010BDC046AC
:1002600000200240024A1368013313607047C04601
:100270006C010020014B18687047C0466C010020DB
:1002800030B583B00190FFF7F5FF0500019C631CBA
:1002900000D00134FFF7EEFF401BA042FAD303B0B9
:1002A00030BD000030B583B0040000230193036823
:1002B000996803220A40012A0ED09968204A114207
:1002C00012D19A6801210A439A601E4B18681E4990
:1002D000FFF71AFF019015E01A68D2072DD4DA68EB
:1002E0001204EAD5002008E0636C10221343636413
:1002F000A36C0F3A1343A364012003B030BD019BEC
:10030000013B0193019B002BF9D1FFF7B3FF0500DF
:1003100023681B68DB070ED4FFF7ACFF401B0228E5
:10032000F6D9636C102213436364A36C0F3A134332
:10033000A3640120E1E70020DFE70020DDE7C046FD
:1003400017000080EC00002040420F0070B5041E32
:1003500000D1B0E0436C002B7DD0636CDB0600D590
:10036000A3E021688B6804221A4000D09DE0636CF2
:10037000524803400630FF30034363648868032318
:100380000340012B6DD0CB6818208343A068034342
:10039000CB6021680B699B009B08606803430B617D
:1003A0002168CB6846480340CB60A3699B03E169A1
:1003B000C9030B43216A48030343606B012857D0EC
:1003C000802040010343E06803432069022851D0A4
:1003D0001343226B52001343626A012A4CD0A26A73
:1003E000C221FF318A4202D0E16A0A4313432168E5
:1003F000CA681A43CA60A26B802149058A420DD09F
:10040000012A0BD0022A09D0032A07D0042A05D0DA
:10041000052A03D0062A01D0072A0AD1206841699B
:1004200007229143416120684169A56B2A400A4334
:1004300042612268D26823490A409A422BD0636CF9
:1004400012229343023A13436364A36C0F3A13439B
:10045000A36401202EE083644022835403F038F823
:100460007BE70B68DB079BD4CB681B0498D48AE737
:100470001000A7E70422ABE7002903D18022520233
:100480001343ACE7626C20210A436264A26C1F39FB
:100490000A43A264A3E70023A364636C032293438B
:1004A000023A13436364002004E0636C1022134398
:1004B0006364012070BD0120FCE7C046FDFEFFFF24
:1004C0001902FEFFE7FF3F83F8B504000E00170096
:1004D00003689B685B073ED44023C35C012B3CD080
:1004E00040230122C254C369012B32D0FFF7DAFE48
:1004F000051E2CD1636C1A4A1A4080235B001343FB
:1005000063640023A3644022A354E36B154A9A62F8
:10051000E36B154ADA62E36B144A1A6323681C2200
:100520001A602268536810210B4353602268D36815
:100530000F390B43D360216840313B003200E06B40
:1005400000F0BCF92268936804210B4393602800F3
:10055000F8BD0025CEE70225F9E70225F7E7C046FA
:10056000FEF0FFFF71050008E3050008EF05000835
:1005700010B5436A5A6C5021114203D0DB6B1B6BE0
:10058000984710BD596C802292000A435A641A6839
:10059000D068C0210901084213D1196A002910D17D
:1005A000116809070DD5916849070ED451680C20D0
:1005B000814351605A6C09490A400431FF310A43B2
:1005C0005A64180002F052FEDBE75A6C20210A43FD
:1005D0005A649A6C1F390A439A64F2E7FEFEFFFFE1
:1005E000704710B5406AFFF7FBFF10BD704710B5AC
:1005F000406A436C402213434364836C3C3A134388
:100600008364FFF7F3FF10BD30B583B0040000230F
:1006100001934033C35C012B00D181E040230122D0
:10062000C25403689A68520770D43E4A48689042A0
:1006300053D09A6A01200D68A84002439A62A36BC6
:100640008022520593421ED0012B1CD0022B1AD0BF
:10065000032B18D0042B16D0052B14D0062B12D048
:10066000072B10D0226850690723034088689842FE
:1006700009D05069072398435061206842698D680A
:100680002B40134343610B681A00103A012A01D929
:10069000002040E0244A1268102B09D08023DB039D
:1006A0001343214A13600B68102B04D0002032E062
:1006B00080231B04F4E71D4B18681D49FFF724FD38
:1006C000830018184300019302E0019B013B019352
:1006D000019B002BF9D100201DE09A6A01200D68D2
:1006E000A84082439A620B681A00103A012A01D985
:1006F000002010E00C4A1268102B05D00D4B13405F
:10070000094A1360002006E00B4BF8E7436C2022F7
:1007100013434364012040230022E25403B030BD60
:100720000220FBE70110000008270140EC00002038
:1007300040420F00FFFFBFFFFFFF7FFF70B50028A3
:1007400011DB8408134DC034A40062590323184000
:10075000C000FC331E008640B24389010B40834039
:100760001343635170BDC0B20F220240083A920891
:1007700006329200084BD3185D6803242040C00065
:10078000FF2214008440A54389010A4082402A4385
:100790005A60E7E700E100E000ED00E01F231840A9
:1007A0001E3B8340014A13607047C04600E100E0F1
:1007B00001380A4B98420FD8094A50600948036A29
:1007C0001B021B0AC02109060B430362002393602E
:1007D00007331360002070470120FCE7FFFFFF0094
:1007E00010E000E000ED00E0042805D0054A1368A1
:1007F00004218B4313607047024A136804210B43A2
:100800001360F8E710E000E0704710B5FFF7FCFF59
:1008100010BD70B5C56B0124066CB4406C600468F3
:1008200063604368102B04D0036899600368DA6042
:1008300070BD03689A600368D960F9E710B50400D9
:100840000368064A9446634418001421FFF75CFCD1
:1008500080002064024BE36310BDC046F8FFFDBF7B
:100860000000024070B5041E24D021250223435508
:1008700001680B68104A1A40436880680343E068C7
:1008800003432069034360690343A0690343E069AC
:10089000034313430B602000FFF7D0FF0023A36244
:1008A000E36223636363A363012262551F32A3548F
:1008B000002070BD0120FCE70FC0FFFF70B50400F1
:1008C0002020205C012832D0202001252554013031
:1008D000205C012804D020230022E254022070BDB5
:1008E0002030013525540020A063256828680126A2
:1008F000B04328602000FFF78CFFE36A002B0BD089
:10090000226813680E210B431360226813680121CB
:100910000B4313600020E2E7226813680A210B43AF
:1009200013602268136806398B431360EDE70220D9
:10093000D5E770B5C36B1A6804682568016C042399
:100940008B401A4212D06B0710D523689B0603D444
:100950002368042293432360C26B0423016C8B4001
:100960005360C36A002B00D0984770BD02238B40B0
:100970001A4218D0AB0716D523689B0606D4236805
:100980000A22934323602123093AC254C26B0223F3
:10099000016C8B40536020230022C254836A002BD9
:1009A000E3D09847E1E708238B401A42DDD02B07BC
:1009B000DBD523680E2293432360C26B0123190009
:1009C000046CA14051608363212283541F330022B1
:1009D000C254036B002BC8D09847C6E7F0B5C64693
:1009E00000B582B0002338E0032600E00026AE40C8
:1009F00035003D430234A400554EA551554C2568A1
:100A00004246D4432E0026404A68D20302D54246CD
:100A100015432E004F4D2E606D682E0026404A680B
:100A2000920302D5424615432E004A4D6E60AD68D2
:100A30002E0026404A68D20202D5424615432E00B7
:100A4000444DAE60ED682C404A68920202D54246A1
:100A50002A4314003F4AD46001330A681400DC4082
:100A600071D001259D402A409046F5D04C68022C5B
:100A700001D0122C0ED1DC080834A4002758072618
:100A80001E40B6000F22B24097430A69B2401600DA
:100A90003E43265002685F0003242600BE40F64312
:100AA000324094464A681440BC4062461443046095
:100AB0004C68621E012A03D9112C01D0122C10D1CE
:100AC00084683440A446CC68BC40624614438460C9
:100AD0004468AC434A681209012515409D402543EE
:100AE0004560C46826408C68BC403443C4604A6892
:100AF000D200B1D5184DAE6901242643AE61AD696F
:100B00002C400194019C9C08A51CAD00104EAF59CF
:100B100003251D40AD000F26AE40B7439026F605D5
:100B2000B04200D162E70D4EB04208D00C4EB04248
:100B300007D00C4EB04200D156E7052657E70126F4
:100B400055E7022653E702B004BC9046F0BDC0460C
:100B50000000014000040140001002400004004871
:100B600000080048000C004803690B4201D1002036
:100B700070470120FCE7002A01D181627047816142
:100B8000FCE74369594041617047000070B5041E9D
:100B900058D0EA23FF33C35C002B05D0EA23FF3390
:100BA0000322E254002218E0E933FF330022C2544A
:100BB00002F03CFDF2E7D100891A8B00E31819001E
:100BC00029310120087001390A7018002B300021EA
:100BD000017059639963D963013260689042EAD821
:100BE000002214E0D100891A8B00E3181D000A3599
:100BF000FF3500212970013D2A7003352970093520
:100C00002960043529601D33FF3319600132904299
:100C1000E8D8402301222168CA5200222168CA5222
:100C20004421206842520C3120684252064A216811
:100C3000CA5200221C3BE2540122EA23FF33E25451
:100C4000002070BD0120FCE700BFFFFF01685822B3
:100C50008B5A034803439BB28B5200207047C04617
:100C60000080FFFFF4235B00C35C012B13D0F4234F
:100C70005B000122C25400290AD19D3BFF3B7F3219
:100C80000168CA52F4235B000022C254002070475E
:100C90002423C154F6E70220F9E70000F0B54DB275
:100CA000002D65DB7F240C40E600361BB4000934C0
:100CB000FF3404197F2631402170ED0F6570E2602A
:100CC000E370F4235B00C35C012B00D175E1F423D6
:100CD0005B000122C254E378012B00D174E0002BA9
:100CE0004ED0022B59D0032B61D02278930001689B
:100CF0008C4663441988B24D29400A43B1490A43DE
:100D00001A80A37A002B00D0B5E06378002B00D1C5
:100D100067E0A28805685023EB5A2178C9005B1868
:100D20005B198021C9008C46634401218A431A80E3
:100D300023789B000268944663441A88510604D5C0
:100D40009F490A40A0490A431A802278920003680A
:100D50009C46624413889D490B4020214B40994991
:100D60000B431380F4235B000022C2540020F0BD2B
:100D70007F240C40E600361BB4002834041999E7A0
:100D800023789B000268944663441A889049114076
:100D9000802292000A431A80A7E723789B0002680A
:100DA000944663441A888A490A401A809DE723784A
:100DB0009B000268944663441A8885491140C0220A
:100DC000D2000A431A8090E723789B000268944679
:100DD00063441A887E4911408022D2000A431A8057
:100DE00083E7A28805685026AB5B2178C9005B18B1
:100DF0005B1978498C46634401218A431A80016853
:100E00008B5B2278D2009B185B18734A944663442C
:100E1000E1683E2926D94A0992B2C90601D1013AB0
:100E200092B2920292B26D490A431A8023789B00D3
:100E30000268944663441A88510404D560490A4004
:100E400067490A431A8023789B00026894466344EA
:100E50001988644A1140C02292015140594A0A43FC
:100E60001A807FE74A0892B2C90701D5013292B2CF
:100E700092021A80DAE723789B0002689446634462
:100E80001A8859491140594A0A431A80E28805686C
:100E90005027EB5B2178C9005B185B198021C900E2
:100EA0008C4663440126B2431A8022890568EB5BB5
:100EB0002178C9005B185B1946498C466344B243EC
:100EC0001A806378002B3DD123789B0002689446FA
:100ED00063441A88510404D539490A4040490A43F9
:100EE0001A8023789B000268944663441A8851064E
:100EF00004D533490A4034490A431A8023789B00B9
:100F00000268944663441A882D4911402E4A0A43C8
:100F10001A802178890003689C4661440B88314A15
:100F20001A40C0239B015340264A13430B80237869
:100F30009B0001688C4663441988244C21400A4375
:100F40001A800FE723789B000268944663441A884E
:100F5000510404D51A490A4021490A431A802378CA
:100F60009B000268944663441A88510604D51449CC
:100F70000A4015490A431A8023789B000268944668
:100F800063441A880E491140154A0A431A80217891
:100F9000890003689C4661440B880C4A1340094A47
:100FA00013430B8023789B0001688C4663441988A7
:100FB0000C4C21400A431A80D4E60220D7E6C046F2
:100FC0000F0F00008080FFFFC080FFFFBF8FFFFF7B
:100FD0008F89FFFF04040000060400000080FFFF6B
:100FE00080C0FFFF8FBFFFFF0F0E00008081FFFF5B
:100FF00010B54AB2002A3ADB7F230B40DC00E41A2A
:10100000A3000933FF33C3187F2421401970D20F86
:101010005A70F4225200825C012A00D1C1E0F4220D
:101020005200012181549A7A002A41D15A78002A2B
:1010300025D01A78920001688C46624411884C06CB
:1010400004D5594C2140594C214311801B789B00F9
:101050000268944663441A8855491140554A0A4328
:101060001A80F4235B000022C254002010BD7F23AD
:101070000B40DC00E41AA3002833C318C4E71A7835
:10108000920001688C46624411884C0404D5464C99
:101090002140494C214311801B789B0002689446F3
:1010A00063441A8845491140424A0A431A80D8E7E6
:1010B0005A78002A3AD11A78920001688C46624424
:1010C00011884C0404D5384C21403B4C21431180FD
:1010D0001A78920001688C46624411884C0604D547
:1010E000314C2140314C214311801A789200016823
:1010F0008C46624411882C4C0C402C4921431180B1
:101100001C78A40002689446644422882B490A4053
:1011100028490A4322801B789B0002689446634456
:101120001A88234C2240114319809AE71A789200BA
:1011300001688C46624411884C0404D51A4C214045
:101140001D4C214311801A78920001688C4662443C
:1011500011884C0604D5144C2140144C21431180B5
:101160001A78920001688C46624411880E4C0C403B
:101170001149214311801C78A400026894466444FC
:1011800022880B490A400B490A4322801B789B00A6
:101190000268944663441A88084C2240114319801F
:1011A0005FE7022062E7C0460F0F0000C080FFFF2C
:1011B000BF8FFFFF8080FFFF80C0FFFF8FBFFFFF5B
:1011C00070B57F242140CD006D1AAC0004192500B4
:1011D0001935FF352A6022001D32FF3213600432B8
:1011E00000231360173A13700934FF342170E93378
:1011F000FF33C35C012B00D1F2E0F4235B0001223A
:10120000C254CA00521A9300C3181A001D32FF328A
:1012100014681533FF331A68944245D9CD006D1A0E
:10122000AB00C3181D33FF33A41A1C60CC00641A32
:10123000A3001C00C3181333FF331B78002B46D1C7
:1012400005685033EB5A04190934FF342478E4005C
:101250001B195B19634CA44663443E2A2ED95409DA
:10126000A4B2D20601D1013CA4B2A402A4B25E4A47
:1012700014431C80CB00591A8B00C3180933FF3369
:101280001B789B000268944663441988574A1140B2
:10129000C02292015140564A0A431A80F4235B004F
:1012A0000022C254002070BDCA00521A9300C31815
:1012B0001D33FF3300221A602200B7E75408A4B29E
:1012C000D20701D50134A4B2A4021C80D2E7CC001D
:1012D000641AA300C3180A33FF331B78002B26D1EE
:1012E00004685033E55ACE00761AB300C3180933A8
:1012F000FF331B78DB00EB181B193E4CA4466344FC
:101300003E2A0BD95409A4B2D50601D1013CA4B29E
:10131000A402A4B2344D2C431C800AE05408A4B2A9
:10132000D50701D50134A4B2A4021C8001E0012B31
:1013300026D0CC00641AA300C3180A33FF331B78ED
:10134000002B38D104685033E55ACE00761AB3002A
:10135000C3180933FF331B78DB00EB181B19214C32
:10136000A44663443E2A1DD95409A4B2D20601D131
:10137000013CA4B2A402A4B21B4A14431C8079E726
:1013800005684F33EB5ACE00761AB40004190934BD
:10139000FF342478E4001B195B19164CA4466344FF
:1013A0001A80C6E75408A4B2D20701D50134A4B20A
:1013B000A4021C805EE7012B00D05BE705684F3379
:1013C000EB5ACE00761AB40004190934FF3424789D
:1013D000E4001B195B19034CA44663441A8049E7D7
:1013E000022060E7060400000080FFFF8FBFFFFFC0
:1013F0008080FFFF0204000010B5F4235B00C35C93
:10140000012B4DD0F4235B000122C2544CB2002CBE
:1014100020DBCA00521A93000933FF33C31801229C
:101420009A707E3211401970E40F5C7000291AD155
:10143000890003689C4661440A881A4B1A401A4B7B
:101440005A401A4B13430B80F4235B000022C25412
:10145000002010BD6A3BFF3B0B40DA00D21A93001C
:101460002833C318DBE7002C0CD0890003689C46A6
:1014700061440B880E4A1340102253400B4A134319
:101480000B80E1E7890003689C4661440A88094BA8
:101490001A4080235B015A40044B13430B80D3E76F
:1014A0000220D6E7BFBFFFFF101000008080FFFFC3
:1014B000BF8FFFFF8FBFFFFF10B54AB2002A38DB96
:1014C000CC00641AA3000933FF33C31800249C70B6
:1014D0007F3421401970D20F5A70F4225200825C7E
:1014E000012A4AD0F4225200012181545A78002A5C
:1014F00027D01A78920001688C46624411884C0605
:1015000004D51F4C21401F4C214311801A789200B2
:1015100003689C46624413881B490B4030214B40B2
:101520001A490B431380F4235B000022C2540020AD
:1015300010BD7F230B40DC00E41AA3002833C3183E
:10154000C4E71A78920001688C46624411884C0402
:1015500004D50B4C21400E4C214311801B789B007D
:1015600002689446634419880A4A1140C0229201D5
:101570005140064A0A431A80D5E70220D8E7C04600
:101580000F0F0000C080FFFFBF8FFFFF8080FFFFB5
:1015900080C0FFFF8FBFFFFF10B501335B0812183B
:1015A0008020C0008446624407E008784C7824021A
:1015B000044314800231013B0232002BF5D110BDEF
:1015C000F8B505007F240C40E000001B81000800F6
:1015D00069188A63CB6300230B640B002933012253
:1015E0001A7028310C70F4235B00EB5C012B00D1E6
:1015F000F9E0F4235B00EA542B18DA6B5B6B9A4238
:1016000038D9E000001B81006918D21ACA63E100D2
:10161000091B8A001100AA1832321278002A31D030
:101620002868E100091B8A00AA1828321278910064
:10163000415A490600D48AE0E600361BB100691819
:101640002931097800293BD15031415AD2008A18FA
:101650001018664A944660443E2B28D95A0992B223
:10166000D90601D1013A92B2920292B260490A437C
:10167000028027E0E100091B8B00EB180021D963F1
:101680001300C4E79FB26E18B28D3B00B16B28689F
:10169000FFF782FF2A685023D35A28363178C900D1
:1016A0005B189B18534A944663441F802DE05A08E8
:1016B00092B2D90701D5013292B29202028001E0C2
:1016C00001293AD0E100091B8A00AA18128E9BB2A8
:1016D000E100091B8E00AE19B16B2868FFF75CFFB3
:1016E00029363378002B00D06AE0E200121B930009
:1016F000EB1828331B789B002A68944663441A88A9
:101700003D4911403D4A0A431A80E1000C1BA300E9
:10171000EB1828331A7892002B689C466244138891
:1017200037490B4030214B4036490B431380F4239B
:101730005B000022EA540020F8BD4F31415AD2002C
:101740008A181018294A944660440380BAE7E600D4
:10175000361BB10069182931097800291ED1503192
:10176000415AD2008A181018224A944660443E2BEF
:101770000BD95A0992B2D90601D1013A92B292021A
:1017800092B21B490A4302800AE05A0892B2D90772
:1017900001D5013292B29202028001E0012905D006
:1017A000E100091B8A00AA18D28D90E74F31415AF7
:1017B000D2008A1810180F4A944660440380EFE75D
:1017C000012BA2D1E200121B9300EB1828331B78E7
:1017D0009B002A68944663441A88074911400A4AC4
:1017E0000A431A8091E70220A6E7C04606040000DB
:1017F0000080FFFF020400000F0F0000C080FFFF09
:10180000BF8FFFFF8080FFFF80C0FFFF30B55D0806
:1018100012188020C0008446624406E014880C70D0
:10182000240A4C70013D02320231002DF6D1DB0753
:1018300001D513880B7030BDF0B583B0050001AB46
:1018400000221A8028684423C35A9BB26A46D38078
:101850001BB2002B00DB39E26B46DC880F231C40F7
:1018600000D0B5E06B4606331B88DB064BD50288FB
:1018700001AB1A801B881B0575D401AB1B881BB2FA
:10188000002BDFDA0388CA4A1340038028685023FC
:10189000C35A84225200AA5CD2009B181B18C54A66
:1018A000944663441B889B059B0D2A000932FF3236
:1018B0009361002B00D077E00021280001F0E0FECA
:1018C0002B6850229A5A9A18BA4B9C4662442B00B5
:1018D0000933FF33D9683E2971D94B099BB2C90638
:1018E00001D1013B9BB29B029BB2B3490B431380D6
:1018F00029680A88B14B1A40C0239B015A40B04B5B
:1019000013430B809EE70388AE4A13400380296887
:101910005023CB5A2822AA5CD2009B185B18AA4AF3
:10192000944663441B889B059B0D2B64AA6B9446CD
:101930006344AB630021280001F0B1FE2423EB5C7B
:10194000002B00D17EE7EB6B002B00D07AE724223E
:10195000AB5C802149420B43DBB2CC312868435257
:101960000023AB546EE75023C35A84225200AA5C72
:10197000D2009B181B188F4A944663441B889B0512
:101980009B0D2A000932FF3293612900ED31FF31AE
:101990009288FFF73BFF2A68138885490B40138024
:1019A000280001F063FE4DE7140092882169FFF7DB
:1019B0002DFF2369A2699446634423617CE74B08A9
:1019C0009BB2C90701D501339BB29B0213808FE7FD
:1019D000A700C019028801AB1A801B881BB2002B1C
:1019E00031DB01AB1B881B0600D42BE72B689C4620
:1019F00067443B88734A13403B80E200121B93000C
:101A00001A00EB1832331B78002B00D0E2E0286874
:101A10005033C35AAA18110028310978C9005B183D
:101A20001B1869498C4663441B889B059B0D1364F6
:101A300000D1FDE0E200121B910069188A8D896BCC
:101A4000FFF7AAFDF4E05A4B1A400280E200121B95
:101A500093001A00EB181333FF331B78002B1DD1B2
:101A600028685033C35A1100AA180932FF3212787D
:101A7000D2009B181B184F4A944663441E88B60533
:101A8000B60D34D06B181A000D32FF32128819339C
:101A9000FF3319683300FFF7B9FE28E02868E20039
:101AA000121B9300EB180933FF331B789A00825AFC
:101AB000520456D55022825ADB00D3181B18424AD2
:101AC000944663441E88B605B60D3BD1E200121B56
:101AD0009300EB180933FF331B789B002A68944668
:101AE00063441A8839491140394A0A431A8031003F
:101AF000E200121B9300EB1818002130FF3002683F
:101B0000921902601A001932FF3210688446664446
:101B100016601D33FF331B68002B08D0E200121B38
:101B2000900028181530FF300268914234D2E2004C
:101B3000121B9300EB180933FF331978280001F0CA
:101B40009FFD4EE7E200121B9300EB181A000F32C4
:101B5000FF3212881933FF3319683300FFF756FE3E
:101B6000B4E75022825ADB00D3181B18114A94465E
:101B700063441E88B605B60DA8D0E200121B930080
:101B8000EB181A001132FF3212881933FF3319682B
:101B90003300FFF73BFE99E7E100091B8A00AA1812
:101BA0000932FF32117832002800FFF709FB18E7ED
:101BB0008F0F0000060400000080FFFF8FBFFFFFB3
:101BC0008080FFFF0F8FFFFF020400000F0F000057
:101BD000C080FFFF2868E200121B9300EB18283337
:101BE0001B789A00825A52064DD55022825ADB0049
:101BF000D3181B18374A944663441B889B059B0DDA
:101C0000E100091B8A001100AA181364002B34D1CB
:101C1000E200121B9300EB1828331B789B002A6804
:101C2000944663441A882C4911402C4A0A431A806E
:101C300028685023C25AE100091B8B00EB181900D9
:101C400028310978C9005218121822498C4662447A
:101C500012889205920D1A64996B8C4662449A63BD
:101C6000DB6B002B28D1E3001C1BA300EB182833EF
:101C70001978280001F013FDE4E56918CA8D896B15
:101C8000FFF78AFCC4E75022825ADB00D3181B18E6
:101C9000134A944663441B889B059B0DE100091B76
:101CA0008A001100AA181364002BB1D069180A8E9B
:101CB000896BFFF771FCABE7E1000C1BA100691811
:101CC000283109782800FFF77BFCBBE5002003B032
:101CD000F0BDC046020400000F0F000080C0FFFFEF
:101CE0000604000070B5040044230268D35A1BB2F6
:101CF000002B46DB236844229A5A520544D42368B9
:101D000044229A5A520404D544215A5A3448024073
:101D10005A52236844229A5A920404D544215A5AAA
:101D2000304802405A52236844229A5AD20438D486
:101D3000236844229A5A120513D54422995A2A48F4
:101D40000140995220684023C15A08252943C152B5
:101D50002068C15A04252943C15223689B5ADB04D9
:101D600031D5236844229A5A920530D423684422FC
:101D70009A5AD20504D544215A5A1C4802405A5254
:101D800070BDFFF759FDB5E744215A5A1848024083
:101D90005A52200001F097FC00212000FEF762FF5C
:101DA000ADE74022995A042081439952114B216892
:101DB0008B52200001F0A6FC216844228B5A0E4869
:101DC00003408B52B4E7200001F08AFCC9E74421AC
:101DD0005A5A0A4802405A52200001F06DFCC5E7E9
:101DE000FFBFFFFFFFDFFFFFFFF7FFFFFFFEFFFF6C
:101DF000FFFBFFFF00BDFFFFFFEFFFFFFFFDFFFF4A
:101E000010B50C060FD57F242140CC00611A8C0040
:101E100028340019002A0DD001228272C3801B0CC5
:101E20000381002010BDCC00611A8C000934FF34FE
:101E30000019EFE782728380F3E7000070B582B08B
:101E400004000368DB072BD5B34B5A680C231340FF
:101E5000042B1DD0B04B5A680C231340082B0ED016
:101E60006368012B41D0002B56D1AB4B1A68AB49AC
:101E70000A401A601A68AA490A401A603BE0A64B59
:101E80005B68C02252021340802252029342E7D183
:101E9000A14B1B689B0303D56368002B00D1F1E1C4
:101EA00023689B0778D59C4B5B680C221A4262D052
:101EB000994B5A680C231340082B53D0E368002B2E
:101EC00000D18BE0944A136801210B431360FEF7A5
:101ED000D1F90500904B1B689B0776D4FEF7CAF931
:101EE000401B0228F6D90320CFE18B4A11688023DA
:101EF0005B020B4313606368002B25D0FEF7BAF931
:101F00000500854B1B689B03CAD4FEF7B3F9401B41
:101F10006428F6D90320B8E1052B09D07E4B1A6856
:101F20007E490A401A601A687D490A401A60E2E751
:101F3000794B19688022D2020A431A6019688022FC
:101F400052020A431A60D6E7FEF794F90500724B75
:101F50001B689B03A4D5FEF78DF9401B6428F6D9B6
:101F6000032092E16C4B5B68C02252021340802236
:101F700012029342A2D1684B1B689B0704D5E36809
:101F8000012B01D0012080E163490B68F8229343C3
:101F90002269D20013430B6023681B0744D5E36911
:101FA000002B2ED05C4A536A01210B435362FEF78B
:101FB00061F90500584B5B6A9B0735D4FEF75AF967
:101FC000401B0228F6D903205FE153490B68F82231
:101FD00093432269D20013430B60DDE74E4A136836
:101FE00001218B431360FEF745F905004A4B1B683E
:101FF0009B07D1D5FEF73EF9401B0228F6D90320F6
:1020000043E1454A536A01218B435362FEF732F99B
:102010000500414B5B6A9B0706D5FEF72BF9401B79
:102020000228F6D9032030E123685B0700D47FE063
:10203000394BDB69DB001DD4374AD169802040056C
:102040000143D161D36903400193019B0125354BC5
:102050001B68DB0510D5A368012B21D0002B36D1DE
:102060002D4B1A6A01218A431A621A6A03318A4384
:102070001A621AE00025EAE72A4A116880235B0009
:102080000B431360FEF7F6F80600264B1B68DB05D2
:10209000E1D4FEF7EFF8801B6428F6D90320F4E0C2
:1020A0001D4A136A01210B431362A368002B24D03D
:1020B000FEF7E0F80600184B1B6A9B0736D4FEF7C4
:1020C000D9F8801B184B9842F5D90320DDE0052B89
:1020D00009D0114B1A6A01218A431A621A6A033124
:1020E0008A431A62E1E70C4B1A6A04210A431A6216
:1020F0001A6A03390A431A62D7E7FEF7BBF80600EB
:10210000054B1B6A9B0711D5FEF7B4F8801B064BE5
:102110009842F5D90320B8E000100240FFFFFEFF0F
:10212000FFFFFBFF0070004088130000012D33D03B
:102130002368DB0610D56369012B33D0053351D1F9
:10214000544A536B04218B435363536BF4318B43D9
:10215000A169C9000B435363236A002B00D193E0AC
:102160004C4A51680C220A40082A00D18FE0022B09
:102170004FD0484A136848490B401360FEF77AF87D
:102180000400444B1B689B017AD5FEF773F8001BD3
:102190000228F6D9032078E03E4AD3693F490B4034
:1021A000D361C5E73B4B5A6B04210A435A635A6B10
:1021B00003390A435A63FEF75DF80500354B5B6B44
:1021C0009B0706D4FEF756F8401B0228F6D90320D9
:1021D0005BE030494B6BF8229343A269D200134372
:1021E0004B63B9E72B4B5A6B04210A435A635A6B72
:1021F00003398A435A63FEF73DF80500254B5B6BB4
:102200009B07A9D5FEF736F8401B0228F6D9032014
:102210003BE0204A136820490B401360FEF72AF880
:1022200005001C4B1B689B0106D5FEF723F8401BDD
:102230000228F6D9032028E0164BDA6A0F218A43D8
:10224000E16A0A43DA625A6815490A40A16A606A7B
:1022500001430A435A601968802252040A431A60F3
:10226000FEF708F804000B4B1B689B0106D4FEF731
:1022700001F8001B0228F6D9032006E0002004E044
:10228000002002E0012000E0002002B070BD01202B
:10229000FBE7C04600100240FFFFFFFEFFFFFFEF1D
:1022A000FF7FC2FF30B589B004AA184B180032C8AE
:1022B00032C2110002680A606A46103313CB13C29F
:1022C0001B681360124B5B680C221A40082A1BD152
:1022D000990C0732114004A8445C0D49C96A0A40B0
:1022E0006946895CC0225202134080225202934206
:1022F00005D00848FDF708FF604309B030BD054828
:10230000FDF702FF6043F8E70248F6E7AC3A000841
:102310000010024000127A0070B505000C004D4B11
:102320001A68012313408B420BD24A490B680122E1
:10233000934323430B600B681A40A24201D0012053
:1023400070BD2B689B0706D5434A5368F0218B4329
:10235000A9680B4353602B68DB074BD56B68012BD7
:1023600020D0022B24D03C4A126892076FD53A49FC
:102370004A680320824313434B60FDF77BFF06004E
:102380006B68012B1AD0022B26D0334B5B680C22D2
:102390001A422FD0FDF76EFF801B304B9842F4D9C4
:1023A0000320CDE72C4A12689203E0D40120C7E74E
:1023B000294A12689201DAD40120C1E7264B5A68F3
:1023C0000C231340042B15D0FDF754FF801B234B27
:1023D0009842F3D90320B3E71F4B5A680C231340EC
:1023E000082B07D0FDF746FF801B1C4B9842F3D902
:1023F0000320A5E7174B1A6801231340A3420BD90A
:1024000014490B680122934323430B600B681A4065
:10241000A24201D0012093E72B685B0706D50E4A44
:1024200053680F490B40E9680B435360FFF73AFFCD
:10243000094B5A6812090F2313400A4AD35CD8404B
:10244000094B18600020FDF7EBFE002078E7012023
:1024500076E7C046002002400010024088130000CA
:10246000FFF8FFFF3C3B0008EC000020014B186820
:102470007047C046EC00002070B582B004000368CD
:10248000DB0335D5414BDB69DB0052D43F4AD169D0
:10249000802040050143D161D36903400193019B32
:1024A00001253B4B1B68DB0545D5384B1B6AC02219
:1024B0009200134013D061680A409A420FD0334B08
:1024C000186A344A02401E6A802149023143196267
:1024D000196A314E314019621A62C3073FD42B4A40
:1024E000136A2C490B4061680B431362012D45D0E0
:1024F0002368DB0706D5254A136B03218B43A168AC
:102500000B43136323689B0606D5204A136B1021E7
:102510008B43E1680B43136323689B0333D51B4A4A
:10252000136B80218B4321690B431363002002B09E
:1025300070BD0025B5E7164A116880235B000B4388
:102540001360FDF797FE0600114B1B68DB05ACD44A
:10255000FDF790FE801B6428F6D90320E7E7FDF71E
:1025600089FE0600094B1B6A9B07B8D4FDF782FE63
:10257000801B0A4B9842F5D90320D8E7D369084954
:102580000B40D361B4E70020D1E7C0460010024001
:1025900000700040FFFCFFFFFFFFFEFF88130000FC
:1025A000FFFFFFEF22230380004870470000002058
:1025B00086239B00C35800221A7300207047000036
:1025C0000A230380014824307047C04600000020E1
:1025D00010B586239B00C4580A78B93BFF3B1340D3
:1025E00024D0202B54D14B78032B10D007D90A2BA1
:1025F00013D00B2B16D18B782360002049E0022BDF
:1026000010D1211D012200F09AFC002041E001229E
:10261000210000F094FC00203BE04B881B0A636023
:10262000002036E000F0FEF9022032E04B780A2B61
:1026300023D00B2B28D0062B01D0002029E04B887B
:102640001B0A222B07D0212B0ED00021002200F0E4
:1026500076FC00201DE0CB881A1C3A2B00D93A22C8
:1026600092B20C493031F2E7CB881A1C092B00D901
:10267000092292B207496C31E9E7210008310122B1
:1026800000F05DFC002004E08B78A360002000E0F7
:10269000002010BD0000002010B50400812101F0D1
:1026A000A6F886239B00E058002805D001F01EF90B
:1026B00086239B000022E250002010BD10B50400CC
:1026C00004230322812101F07FF8102001F00AF990
:1026D00086239B00E050002803D0002303730020D2
:1026E00010BD0120FCE770B58624A40005591C3CF0
:1026F000045D032C01D0002070BD2B7B002BFAD190
:1027000001332B7313000A00812101F0CAF8F2E7AC
:1027100010B5002816D085239B00C358002B03D08A
:1027200085239B000024C450002902D084239B00F1
:10273000C150FE235B000121C154027000F0F8FF7C
:10274000002010BD0220FCE7002904D085239B0057
:10275000C150002070470220FCE710B501F024F8BA
:10276000002010BD10B585239B00C358002B07D057
:102770001B689847002801D1002010BD0220FCE70B
:102780000220FAE710B585239B00C3585B68984781
:10279000002010BD70B5040082239B00C5182800DE
:1027A00000F02CF9FA235B000122E250124BE25AAE
:1027B000163BE2501033E15CEA3BFF3B0B40012B40
:1027C0000FD0002B07D0022B10D07F23994320007D
:1027D00001F01DF803E02900200000F0B3FA00200A
:1027E00070BD2900200000F0D1FAF8E72900200090
:1027F00000F0EBFAF3E7C0460E02000010B504004B
:102800001300002929D1FA2252008258032A01D04C
:10281000002010BD421DFF329168D26891420FD84E
:1028200085239B00C3581B69002B05D0FE22520054
:10283000825C032A00D19847200000F09EFBE7E766
:10284000891A0530FF3081608A4200D90A0092B2AD
:102850001900200000F089FBDAE785239B00C358AC
:102860009B69002BD4D0FE225200825C032ACFD178
:102870009847CDE770B50400130000294ED1FA2225
:1028800052008258022A06D080239B00E35C012B71
:102890003FD0002070BDC269056AAA421ED8866971
:1028A00029003000FDF7B6FC002906D1B54204D856
:1028B000FC235B00E3589E421DD385239B00E35815
:1028C000DB68002B06D0FE225200A25C032A01D155
:1028D00020009847200000F05CFBD5E7521BC26146
:1028E00092B2190000F039FB0023002200212000E1
:1028F00000F0E7FFC8E70022200000F02EFBFC23D9
:102900005B000022E25000230021200000F0D9FFEC
:10291000BAE780239B000022E254BAE785239B009C
:10292000C3585B69002BB4D0FE225200825C032A9C
:10293000AFD19847ADE770B50400402300220021D5
:1029400000F042FF402588235B00E550D03B002289
:102950008021200000F038FF2562FE235B00012269
:10296000E2541C33E358002B06D085239B00E35828
:102970005B68217920009847002070BD0174002019
:102980007047FE235B00C15CFE22FF328154FA3A9D
:10299000FF3AC25400207047FE23FF33C25C013B64
:1029A000C2540020704710B5FE235B00C35C032BAC
:1029B00001D0002010BD85239B00C358DB69002B8C
:1029C000F7D09847F5E70300002002E00130C0B2DD
:1029D00001331A78002AF9D1704710B504004B88EA
:1029E000012B0AD181239B000122C2501033C3580E
:1029F0009B689847200000F0C0FA10BD0B78037068
:102A00004B7843708B78CA7812029B1843800B79FD
:102A10004A7912029B1883808B79CA7912029B181B
:102A2000C380704710B50400802100F0F0FE002143
:102A3000200000F0ECFE10BD30B583B004000D00A6
:102A40004A88130A072B00D98EE09B004F49CB58C8
:102A50009F4684239B00C3581B68007C6A46911DD7
:102A600098476B4606331B88002B03D0EA88002A60
:102A700000D07EE003B030BD037C002B09D185235C
:102A80009B00C3589B6A6A46901D98470223437077
:102A9000E7E785239B00C358DB6A6A46901D984789
:102AA00002234370DDE7D2B2052A39D89200384BB1
:102AB0009B589F4684239B00C3585B68007C6A46F2
:102AC000911D9847CDE784239B00C3589B68007CE9
:102AD0006A46911D9847C4E784239B00C358DB686E
:102AE000007C6A46911D9847BBE784239B00C3582E
:102AF0001B69007C6A46911D9847B2E784239B00BE
:102B0000C3585B69007C6A46911D9847A9E78423F6
:102B10009B00C3589B69007C6A46911D9847A0E7BB
:102B20002900FFF77FFFA5E7037C002B07D1852352
:102B30009B00C3585B6B6A46901D984791E729003C
:102B4000FFF770FF96E7037C002B09D185239B00DC
:102B5000C3581B6B6A46901D98470723437080E754
:102B60002900FFF75FFF85E729002000FFF75AFFE4
:102B700080E7191C934200D9111C8AB26B46D98098
:102B80000100200000F0DBF974E7C046CC3A0008F1
:102B9000EC3A000870B504008B88002B22D1CB885A
:102BA000002B1FD18B787F251D40FE235B00C35C6B
:102BB000032B0FD0FF235B00C554290000F061FEFA
:102BC000200000F0DAF9002D07D0FE235B0002227E
:102BD000E2540AE0FFF726FF07E0FE235B00012234
:102BE000E25402E02000FFF71DFF70BD70B5040045
:102BF0000D008978284B197001290AD8FE235B0043
:102C0000C35C022B09D0032B1ED02900FFF70AFF5B
:102C100002E02900FFF706FF70BD002911D04160D6
:102C2000FE235B000322C254FFF79CFD022803D061
:102C3000200000F0A2F9EFE729002000FFF7F2FEE4
:102C4000EAE700F09AF9E7E7002911D043689942D2
:102C50001ED0D9B2FFF796FD0F4B197861602000A6
:102C6000FFF780FD02280ED0200000F086F9D3E7A0
:102C7000FE235B000222C2544160FFF783FD200067
:102C800000F07BF9C8E729002000FFF7CBFEC3E77F
:102C900000F073F9C0E7C0464001002010B5CB88B2
:102CA000012B09D1FE235B00C35C022B07D0032B51
:102CB0000DD0FFF7B7FE01E0FFF7B4FE10BD002313
:102CC000836001000831012200F039F9F6E7011DA7
:102CD000012200F034F9F1E710B5FE235B00C35C7C
:102CE000023BDBB2012B0ED80023C36081239B0083
:102CF000C358002B01D00223C36001000C31022213
:102D000000F01DF910BDFFF78DFEFBE710B50400C4
:102D1000FE235B00C35C023BDBB2012B0ED84B8869
:102D2000012B0AD181239B000022C2501033C358CB
:102D30009B689847200000F020F910BDFFF772FE55
:102D4000FBE7000010B54B78092B19D89B000E4A01
:102D5000D3589F46FFF770FE002010BDFFF71AFF03
:102D6000FAE7FFF743FFF7E7FFF798FFF4E7FFF70E
:102D7000B3FFF1E7FFF731FEEEE7FFF7C7FFEBE741
:102D8000FFF750FEE8E7C046043B000870B50400BA
:102D90000D00FE235B00C35C032B13D10B79012BC9
:102DA0000DD885239B00C3589B689847EB88002B60
:102DB00001D0002070BD200000F0DFF8F9E7FFF738
:102DC00031FEF6E7FFF72EFEF3E770B505000C00C5
:102DD0008A88D1B2207860230340202B08D1F533B4
:102DE000FF33EB589B68210028009847002070BDF6
:102DF0006378012B2CD0002B52D0032BF6D1FA3361
:102E0000FF33EB5C022B06D0032B0CD021002800F3
:102E1000FFF708FEEAE70029E8D08029E6D028007D
:102E200000F0F5FCE2E76388002B06D1002904D00E
:102E3000802902D0280000F0EAFC85239B00EB5893
:102E40009B68210028009847280000F096F8CDE7FD
:102E5000FE235B00EB5C022B06D0032B0CD0210081
:102E60002800FFF7DFFDC1E70029BFD08029BDD0D2
:102E7000280000F0CCFCB9E76388002BB6D14B06E4
:102E800003D1280000F079F8B0E7280000F0CFFC6B
:102E900085239B00EB589B68210028009847F0E7AA
:102EA000FE235B00EB5C022B06D0032B0AD0210033
:102EB0002800FFF7B7FD99E74B0697D0280000F0F0
:102EC000A6FC93E7130612D47F240C40103424018F
:102ED0002C190434280000F0BAFC00280ED001237D
:102EE000236002222100280000F029F87EE77F24D9
:102EF0000C40013424012C190434EBE70023236037
:102F0000EFE770B504000D001600002816D0FFF79B
:102F10005AFD0130400080B23080287003236B706E
:102F2000013B08E001345A1CD2B2E9540233DBB24F
:102F3000AA180021117021780029F3D170BD10B5B5
:102F40001300FA225200022484508361C3610A00F4
:102F5000002100F0A6FC002010BD10B513000A00EF
:102F6000002100F09EFC002010BD10B513000A00E7
:102F7000002100F0A6FC002010BD10B5FA235B0074
:102F80000422C25000230022002100F08AFC00200D
:102F900010BD10B5FA235B000522C25000230022A9
:102FA000002100F08EFC002010BD000070B506006E
:102FB000012400250BE06B000C4A995AAB000C4A27
:102FC00098580122FDF7D7FD01356400E4B2002CCA
:102FD0000BD02642EFD06B00044A995AAB00044A4A
:102FE00098580022FDF7C7FDEEE770BD2C3B0008A6
:102FF000B000002070B50B4C23685A1C22600A4DAB
:10300000EB182022985CFFF7D1FF3220FDF738F94A
:1030100022686B6B9A4203DB034A38230021D154A8
:1030200070BDC04644010020B000002010B59020C3
:103030000421C005FDF798FD002864D1524A137A97
:1030400001210B431372514B186800220121FDF737
:1030500092FD90200821C005FDF786FD00285DD176
:10306000494A137A02210B431372484B58680022D5
:103070000221FDF780FD90201021C005FDF774FDB1
:10308000002856D1404A137A04210B431372802141
:103090003E4B98680022C900FDF76DFD902020216D
:1030A000C005FDF761FD002850D1374A137A082189
:1030B0000B4313728021354BD86800220901FDF7BC
:1030C0005AFD314BDB689B3BFF3B314A93424AD967
:1030D00080212E4B586900228901FDF74CFD2A4BB7
:1030E0001B699B3BFF3B2A4A934244D88021274BD4
:1030F000186901224901FDF73EFD8021C9012548DB
:10310000FDF73FFD10BD204A137A01218B43137256
:103110001E4B18680122FDF72EFD9AE71A4A137A12
:1031200002218B431372194B58680122FDF723FDCE
:10313000A1E7154A137A04218B4313727C31134B98
:1031400098680122C900FDF716FDA7E70E4A137A19
:1031500008218B43137278310C4BD8680122090186
:10316000FDF709FDADE78021084B5869012289016F
:10317000FDF701FDB3E78021044B186900224901E6
:10318000FDF7F9FCB9E7C04644010020B00000207B
:10319000CC0C00000004004800B583B0094A516916
:1031A000012319435161526913400193019B00228D
:1031B00000210920FDF7C2FA0920FDF7EFFA03B05C
:1031C00000BDC04600100240F0B589B0244B5969DB
:1031D0008020C003014359615A6902400092009A5D
:1031E000596980208002014359615A690240019265
:1031F000019A5A698021C9020A435A615B690B40EE
:103200000293029B174E184D012231002800FDF752
:10321000B2FC032303930493002405949027FF0535
:1032200003A93800FDF7DAFB3C23039304940594CB
:1032300003A93800FDF7D2FB0396012604960594F6
:10324000069403A92800FDF7C9FBF0230393049417
:10325000059603A92800FDF7C1FB09B0F0BDC046E3
:103260000010024003FC00000004004870B51B4B36
:103270000022DA60002011E08200194BD3581A0CAA
:103280001205120D1549CC68A4466244CA601B059C
:103290001B0D0A69944663440B610130C728EBDDBE
:1032A0000E4CC821E068FCF72FFF0500E060C82144
:1032B0002069FCF729FF206125712D0A6571A07135
:1032C000000AE071074A3823D35C002B00D070BDA0
:1032D000802109020448FDF754FCF8E7440100206E
:1032E00000020020B000002000040048FEE70000BB
:1032F00000B597B011230A93103B0B930D930F93D6
:103300000F3310930E3B129380235B0213938023A1
:103310005B031493002315930AA8FEF78FFD002882
:1033200029D107230693053B0793002308930993AC
:10333000012106A8FEF7F0FF002821D180239B027F
:1033400001938023059301A8FFF796F800281CD16C
:10335000FFF78CF8FA218900FCF7D6FEFDF728FA72
:103360000420FDF741FA0120002200214042FDF730
:10337000E5F917B000BD852149000648FFF7B6FF03
:103380008A2149000348FFF7B1FF1C21FF310148A2
:10339000FFF7ACFF543B000800B585B01F48204B39
:1033A0000360002343608360C3600122026108213F
:1033B00041618361C36102624362C221FF31816264
:1033C000C3620263426303338363FCF7BFFF0028D9
:1033D00014D10023019380235B01029301A90F48BC
:1033E000FDF712F900280ED10123019301A90B4822
:1033F000FDF70AF900280BD105B000BDA121490055
:103400000848FFF773FF4C21FF310648FFF76EFFB6
:10341000A92149000348FFF769FFC046B401002015
:1034200000240140543B000810B5FCF70BFFFFF7E8
:103430005FFFFFF7C9FEFFF7AFFEFFF7ADFF00F03C
:10344000DBF8C82252000C490C48FDF73DF8002873
:1034500009D0002010BDFFF7E9FD0949052204311C
:103460000848FFF740F9084A3823D35C002BF2D014
:10347000FFF7C0FDF1E7C04600020020B4010020C4
:103480004401002020050020B000002000B583B0DA
:103490000E4A916901231943916192691340019386
:1034A000019B0520002200214042FDF747F9022040
:1034B000002200214042FDF741F9012000220021B5
:1034C0004042FDF73BF903B000BDC046001002408A
:1034D00030B587B004001C4B02689A4201D007B097
:1034E00030BD1A4A9169802080000143916193693F
:1034F00003400093009B032301930293002503954F
:103500007138FF3801A9C005FDF768FA1048114B62
:103510000360456085608023C3608033036180233E
:10352000DB0043612023836180239B01C361FDF79E
:1035300099F9002803D1064BE3635C62CFE773215E
:103540000548FFF7D3FEF6E70024014000100240D3
:103550007001002008000240643B00087047FEE74D
:103560007047704710B5FCF77DFEFDF74EF910BDB2
:1035700010B50248FDF7DDF910BDC046700100200E
:1035800010B50248FEF7AEFB10BDC0464407002050
:10359000134B1A6801210A431A605A681148024005
:1035A0005A601A68104802401A601A680F480240B0
:1035B0001A605A680E4802405A60DA6A0F20824345
:1035C000DA621A6B0B4802401A631A6B80200243BE
:1035D0001A635A6B8A435A6300229A607047C04646
:1035E000001002400CB8FF08FFFFF6FEFFFFFBFFD4
:1035F000FFFFC0FF6CFEFFFF10B5074C002207491C
:103600002000FFF785F806492000FFF79DF820000D
:10361000FFF7A3F810BDC0462005002008010020D8
:103620007800002010B5FFF763FE10BD00B583B031
:1036300002680C4B9A4201D003B000BD0A4AD1691E
:10364000802000040143D161D36903400193019BB1
:10365000002200211F20FDF771F81F20FDF79EF8C2
:10366000EAE7C046005C00400010024010B50100CF
:1036700087239B00C058ED31FF31FFF78BF810BD59
:1036800010B50300872292008058CA00521A940095
:103690001B191933FF331A68FFF7B0F810BD10B5C6
:1036A0000300872292008058CA00521A94001B1906
:1036B0009A6BFFF7DFF810BD10B587239B00C05849
:1036C000FFF771F910BD70B505008724A400012132
:1036D0000059FFF753F92859FFF72DF970BD000085
:1036E00010B5040087239B00C058FFF74AF9A3696F
:1036F000002B04D0024A136906210B43136110BD4D
:1037000000ED00E010B504008369002B05D187238C
:103710009B00E058FFF740F910BD044A13690621E9
:103720008B431361FFF77EFFF1E7C04600ED00E039
:1037300070B50400194887239B00C4500433E0503F
:10374000174B036008234360022282600023C3609A
:1037500002618361C3610362FDF718FA002816D184
:103760008825AD001823002200216059FEF748FB90
:103770005823002280216059FEF742FB60598023C4
:103780005B0000228121FEF73BFB002070BD9221EF
:1037900049000448FFF7AAFDE2E7C04644070020BD
:1037A000005C0040803B000810B588239B00C05897
:1037B000FDF74CFA002803D0022803D0022010BDE8
:1037C0000020FCE70120FAE710B514001A00882356
:1037D0009B00C0582300FDF761FA002803D002289F
:1037E00003D0022010BD0020FCE70120FAE710B54D
:1037F00088239B00C058FDF7FBFB002803D002285C
:1038000003D0022010BD0020FCE70120FAE710B52C
:1038100088239B00C058FDF7EFFD002803D0022845
:1038200003D0022010BD0020FCE70120FAE710B50C
:1038300088239B00C058FDF73FFE002803D00228D4
:1038400003D0022010BD0020FCE70120FAE70A00A7
:1038500088239B00C35849B2002909DB7F2111400E
:10386000CA00511A8A009B180B33FF33187870472F
:103870007F211140C800411A8A009B182A3318780A
:10388000F5E710B588239B00C058FDF7EBF9002839
:1038900003D0022803D0022010BD0020FCE7012045
:1038A000FAE710B58824A4000059FDF789FE002826
:1038B00003D0022803D0022010BD0020FCE7012025
:1038C000FAE710B58824A4000059FDF779FC002818
:1038D00003D0022803D0022010BD0020FCE7012005
:1038E000FAE70000004870475801002070470000C8
:1038F00012230B8000487047F000002004230B8047
:10390000014814307047C046F000002010B50A008E
:10391000002805D005490648FFF7F3FA034810BD13
:1039200002490348FFF7EDFAF8E7C04664090020B2
:10393000943B000810B50A00034C21000348FFF730
:10394000E0FA200010BDC04664090020AC3B00082E
:1039500010B50A00002805D005490648FFF7D1FA3E
:10396000034810BD02490348FFF7CBFAF8E7C04609
:1039700064090020B43B000810B50A00002805D0F7
:1039800005490648FFF7BDFA034810BD0249034840
:10399000FFF7B7FAF8E7C04664090020BC3B00080F
:1039A00010B50A00002805D005490648FFF7A9FA16
:1039B000034810BD02490348FFF7A3FAF8E7C046E1
:1039C00064090020C83B0008134885461348016875
:1039D000090E134A914205D1124813490160134858
:1039E00013490160002103E0124B5B58435004313E
:1039F0001148124B42189A42F6D3114A02E00023B2
:103A0000136004320F4B9A42F9D3FFF7C1FD00F067
:103A10001DF8FFF709FDFEE7001800200400000074
:103A20001F000000181002400100000000000140CB
:103A300000000000E43B00080000002024010020FA
:103A400024010020640B0020FEE7000070B5002672
:103A50000C4D0D4C641BA410A64209D1002600F0A9
:103A600019F80A4D0A4C641BA410A64205D170BD7A
:103A7000B300EB5898470136EEE7B300EB58984790
:103A80000136F2E7DC3B0008DC3B0008DC3B0008C9
:103A9000E03B0008F8B5C046F8BC08BC9E4670473D
:0C3AA000F8B5C046F8BC08BC9E46704754
:103AAC0002030405060708090A0B0C0D0E0F101073
:103ABC000102030405060708090A0B0C0D0E0F1072
:103ACC00682B0008522A0008782A0008A62A000849
:103ADC00682B0008682B0008282B0008462B0008D0
:103AEC00B42A0008C62A0008D82A0008EA2A0008C6
:103AFC00FC2A00080E2B00086E2D00087A2D0008F9
:103B0C00802D0008742D0008802D00085C2D000805
:103B1C00542D0008802D0008682D0008622D000827
:103B2C00010002000004000800100020004000808A
:103B3C000000000000000000010203040607080951
:103B4C0000000000010203042E2E2F5372632F6D10
:103B5C0061696E2E630000002E2E2F5372632F733B
:103B6C00746D3332663078785F68616C5F6D73703A
:103B7C002E6300002E2E2F5372632F757362645FB9
:103B8C00636F6E662E63000055534220466C696766
:103B9C00687420596F6B65204164617074657200A4
:103BAC00416C616E2D31000030303030000000006F
:103BBC0048494420436F6E666967000048494420B9
:103BCC00596F6B6520496E746572666163650000A0
:043BDC00E9000008F4
:043BE000C100000818
:103BE40009022200010100E032090400000103007F
:103BF4000000092111010001223A00070581030494
:103C0400000A00000A060002000000400100000053
:103C140005010904A1010901A10009300931751048
:103C2400950246FF0F26FF0F150035008102C005DF
:103C3400091901290415002501750195045500652C
:103C4400008102750195048103C00000092111015E
:103C54000001223A00000000BD2600089926000851
:103C6400D12500080000000000000000B125000874
:103C74000000000000000000000000000000000040
:103C8400A5250008A5250008A5250008C1250008CC
:103C940000040048000400480004004800040048F0
:103CA40000040048000400480004004800040048E0
:103CB40018244281C3E7FF7E3C180C0603060C1847
:103CC4003060C000130000000100000000127A0000
:103CD400120100020000004083042B57000201027D
:103CE4000301000004030904F1380008FD3800084A
:103CF400353900080D3900085139000879390008B0
:043D0400A1390008D9
:04000005080039C9ED
:00000001FF
